{
  "contractName": "CoalTracker",
  "abi": [
    {
      "anonymous": false,
      "inputs": [
        {
          "indexed": false,
          "internalType": "string",
          "name": "id",
          "type": "string"
        },
        {
          "indexed": false,
          "internalType": "string",
          "name": "ipfshash",
          "type": "string"
        }
      ],
      "name": "exported",
      "type": "event"
    },
    {
      "anonymous": false,
      "inputs": [
        {
          "indexed": false,
          "internalType": "string",
          "name": "id",
          "type": "string"
        },
        {
          "indexed": false,
          "internalType": "string",
          "name": "importinglicense",
          "type": "string"
        }
      ],
      "name": "verified",
      "type": "event"
    },
    {
      "constant": false,
      "inputs": [
        {
          "internalType": "string",
          "name": "id",
          "type": "string"
        },
        {
          "internalType": "string",
          "name": "ipfshash",
          "type": "string"
        }
      ],
      "name": "exporter",
      "outputs": [],
      "payable": false,
      "stateMutability": "nonpayable",
      "type": "function"
    },
    {
      "constant": true,
      "inputs": [
        {
          "internalType": "string",
          "name": "id",
          "type": "string"
        }
      ],
      "name": "importer",
      "outputs": [
        {
          "internalType": "string",
          "name": "",
          "type": "string"
        }
      ],
      "payable": false,
      "stateMutability": "view",
      "type": "function"
    },
    {
      "constant": false,
      "inputs": [
        {
          "internalType": "string",
          "name": "id",
          "type": "string"
        },
        {
          "internalType": "string",
          "name": "importinglicense",
          "type": "string"
        }
      ],
      "name": "verify",
      "outputs": [],
      "payable": false,
      "stateMutability": "nonpayable",
      "type": "function"
    },
    {
      "constant": true,
      "inputs": [
        {
          "internalType": "string",
          "name": "id",
          "type": "string"
        }
      ],
      "name": "checkverification",
      "outputs": [
        {
          "internalType": "string",
          "name": "",
          "type": "string"
        }
      ],
      "payable": false,
      "stateMutability": "view",
      "type": "function"
    }
  ],
  "bytecode": "0x608060405234801561001057600080fd5b50610b98806100206000396000f3fe608060405234801561001057600080fd5b506004361061004c5760003560e01c80633c5e8d41146100515780635af9b746146101855780639deb17f5146102b9578063bba2557d1461040b575b600080fd5b61010a6004803603602081101561006757600080fd5b810190808035906020019064010000000081111561008457600080fd5b82018360208201111561009657600080fd5b803590602001918460018302840111640100000000831117156100b857600080fd5b91908080601f016020809104026020016040519081016040528093929190818152602001838380828437600081840152601f19601f82011690508083019250505050505050919291929050505061055d565b6040518080602001828103825283818151815260200191508051906020019080838360005b8381101561014a57808201518184015260208101905061012f565b50505050905090810190601f1680156101775780820380516001836020036101000a031916815260200191505b509250505060405180910390f35b61023e6004803603602081101561019b57600080fd5b81019080803590602001906401000000008111156101b857600080fd5b8201836020820111156101ca57600080fd5b803590602001918460018302840111640100000000831117156101ec57600080fd5b91908080601f016020809104026020016040519081016040528093929190818152602001838380828437600081840152601f19601f820116905080830192505050505050509192919290505050610668565b6040518080602001828103825283818151815260200191508051906020019080838360005b8381101561027e578082015181840152602081019050610263565b50505050905090810190601f1680156102ab5780820380516001836020036101000a031916815260200191505b509250505060405180910390f35b610409600480360360408110156102cf57600080fd5b81019080803590602001906401000000008111156102ec57600080fd5b8201836020820111156102fe57600080fd5b8035906020019184600183028401116401000000008311171561032057600080fd5b91908080601f016020809104026020016040519081016040528093929190818152602001838380828437600081840152601f19601f8201169050808301925050505050505091929192908035906020019064010000000081111561038357600080fd5b82018360208201111561039557600080fd5b803590602001918460018302840111640100000000831117156103b757600080fd5b91908080601f016020809104026020016040519081016040528093929190818152602001838380828437600081840152601f19601f820116905080830192505050505050509192919290505050610773565b005b61055b6004803603604081101561042157600080fd5b810190808035906020019064010000000081111561043e57600080fd5b82018360208201111561045057600080fd5b8035906020019184600183028401116401000000008311171561047257600080fd5b91908080601f016020809104026020016040519081016040528093929190818152602001838380828437600081840152601f19601f820116905080830192505050505050509192919290803590602001906401000000008111156104d557600080fd5b8201836020820111156104e757600080fd5b8035906020019184600183028401116401000000008311171561050957600080fd5b91908080601f016020809104026020016040519081016040528093929190818152602001838380828437600081840152601f19601f820116905080830192505050505050509192919290505050610933565b005b60606001826040518082805190602001908083835b602083106105955780518252602082019150602081019050602083039250610572565b6001836020036101000a03801982511681845116808217855250505050505090500191505090815260200160405180910390208054600181600116156101000203166002900480601f01602080910402602001604051908101604052809291908181526020018280546001816001161561010002031660029004801561065c5780601f106106315761010080835404028352916020019161065c565b820191906000526020600020905b81548152906001019060200180831161063f57829003601f168201915b50505050509050919050565b60606000826040518082805190602001908083835b602083106106a0578051825260208201915060208101905060208303925061067d565b6001836020036101000a03801982511681845116808217855250505050505090500191505090815260200160405180910390208054600181600116156101000203166002900480601f0160208091040260200160405190810160405280929190818152602001828054600181600116156101000203166002900480156107675780601f1061073c57610100808354040283529160200191610767565b820191906000526020600020905b81548152906001019060200180831161074a57829003601f168201915b50505050509050919050565b6040518060400160405280600481526020017f74727565000000000000000000000000000000000000000000000000000000008152506001836040518082805190602001908083835b602083106107df57805182526020820191506020810190506020830392506107bc565b6001836020036101000a03801982511681845116808217855250505050505090500191505090815260200160405180910390209080519060200190610825929190610abe565b507f5dfb642d22110dc3994b6cb5e4a7b3c9b35c0139be0d67878cca17efd525fa2b8282604051808060200180602001838103835285818151815260200191508051906020019080838360005b8381101561088d578082015181840152602081019050610872565b50505050905090810190601f1680156108ba5780820380516001836020036101000a031916815260200191505b50838103825284818151815260200191508051906020019080838360005b838110156108f35780820151818401526020810190506108d8565b50505050905090810190601f1680156109205780820380516001836020036101000a031916815260200191505b5094505050505060405180910390a15050565b806000836040518082805190602001908083835b6020831061096a5780518252602082019150602081019050602083039250610947565b6001836020036101000a038019825116818451168082178552505050505050905001915050908152602001604051809103902090805190602001906109b0929190610abe565b507fc768a074988cd0bc58663537456a3e7ff47ca3cf78224884a709aa7145b2f7bc8282604051808060200180602001838103835285818151815260200191508051906020019080838360005b83811015610a185780820151818401526020810190506109fd565b50505050905090810190601f168015610a455780820380516001836020036101000a031916815260200191505b50838103825284818151815260200191508051906020019080838360005b83811015610a7e578082015181840152602081019050610a63565b50505050905090810190601f168015610aab5780820380516001836020036101000a031916815260200191505b5094505050505060405180910390a15050565b828054600181600116156101000203166002900490600052602060002090601f016020900481019282601f10610aff57805160ff1916838001178555610b2d565b82800160010185558215610b2d579182015b82811115610b2c578251825591602001919060010190610b11565b5b509050610b3a9190610b3e565b5090565b610b6091905b80821115610b5c576000816000905550600101610b44565b5090565b9056fea265627a7a72315820a74cd5c858ce91e1d72c5e627e60dcbbf626d563af1dbcde89ed51e296cc83ba64736f6c63430005100032",
  "source": "// SPDX-License-Identifier: MIT\r\npragma solidity ^0.5.0;\r\ncontract CoalTracker\r\n{\r\n    event exported(string id,string ipfshash);\r\n    event verified(string id,string importinglicense);\r\n    mapping(string=>string) hashes;\r\n    mapping(string=>string) verificationstatus;\r\n    \r\n    \r\n    function exporter(string memory id,string memory ipfshash) public\r\n    {\r\n        hashes[id] = ipfshash;\r\n        emit exported(id,ipfshash);\r\n    }\r\n    \r\n    function importer(string memory id)public view returns(string memory)\r\n    {\r\n        return hashes[id];\r\n    }\r\n    \r\n    function verify(string memory id,string memory importinglicense) public\r\n    {\r\n        verificationstatus[id]=\"true\";\r\n        emit verified(id,importinglicense);\r\n    }\r\n    \r\n    function checkverification(string memory id)public view returns(string memory)\r\n    {\r\n        return verificationstatus[id];\r\n    }\r\n}",
  "sourcePath": "D:/DevfolioHackNITR/CoalTracker/src/contracts/CoalTracker.sol",
  "compiler": {
    "name": "solc",
    "version": "0.5.16+commit.9c3226ce.Emscripten.clang"
  },
  "schemaVersion": "3.3.2",
  "updatedAt": "2021-10-30T10:26:01.978Z",
  "networkType": "ethereum",
  "devdoc": {
    "methods": {}
  },
  "userdoc": {
    "methods": {}
  }
}